:100000000C945D000C9485000C9485000C94850084
:100010000C9485000C9485000C9485000C9485004C
:100020000C9485000C9485000C9485000C9485003C
:100030000C9485000C9485000C9485000C9485002C
:100040000C9400040C9485000C94CE030C94A8032B
:100050000C9485000C9485000C9485000C9485000C
:100060000C9485000C9485000000000024002700FB
:100070002A0000000000250028002B0004040404CE
:100080000404040402020202020203030303030342
:10009000010204081020408001020408102001021F
:1000A00004081020000000080002010000030407FB
:1000B0000000000000000000B30511241FBECFEFB8
:1000C000D8E0DEBFCDBF11E0A0E0B1E0E0EDF1E1AE
:1000D00002C005900D92A437B107D9F722E0A4E73A
:1000E000B1E001C01D92AA31B207E1F710E0CDE501
:1000F000D0E004C02197FE010E94DB08CC35D10777
:10010000C9F70E944A040C94E6080C940000E1EB45
:10011000F0E02491EDE9F0E09491E9E8F0E0E49179
:10012000EE2309F43BC0222339F1233091F038F457
:100130002130A9F0223001F524B52F7D12C02730DF
:1001400091F02830A1F02430B9F4209180002F7D67
:1001500003C0209180002F77209380000DC024B52C
:100160002F7724BD09C02091B0002F7703C02091C4
:10017000B0002F7D2093B000F0E0EE0FFF1FEE588F
:10018000FF4FA591B4912FB7F894EC91811103C062
:1001900090959E2301C09E2B9C932FBF0895E091C4
:1001A0007D01F0917E010190F081E02D682F8DE7B7
:1001B00091E00994CF92DF92EF92FF920F931F93F9
:1001C000CF93DF936C017A018B01C0E0D0E0CE15B4
:1001D000DF0589F0D8016D918D01D601ED91FC917B
:1001E0000190F081E02DC6010995892B11F47E0163
:1001F00002C02196ECCFC701DF91CF911F910F91E3
:10020000FF90EF90DF90CF900895089580E090E008
:100210000895FC01538D448D252F30E0842F90E00C
:10022000821B930B541710F0CF96089501970895F1
:10023000FC01918D828D981761F0828DDF01A80FEE
:10024000B11D5D968C91928D9F5F9F73928F90E010
:1002500008958FEF9FEF0895FC01918D828D98177F
:1002600031F0828DE80FF11D858D90E008958FEFBC
:100270009FEF0895FC01918D228D892F90E0805C85
:100280009F4F821B91098F73992708958DE791E005
:100290000E943A0121E0892B09F420E0822F089581
:1002A000FC01848DDF01A80FB11DA35ABF4F2C9113
:1002B000848D90E001968F739927848FA689B789E2
:1002C0002C93A089B1898C9180648C93938D848DBB
:1002D000981306C00288F389E02D80818F7D80838A
:1002E0000895EF92FF920F931F93CF93DF93EC014A
:1002F00081E0888F9B8D8C8D981305C0E889F989E2
:10030000808185FD24C0F62E0B8D10E00F5F1F4FFE
:100310000F731127E02E8C8DE8120CC00FB607FC6E
:10032000FACFE889F989808185FFF5CFCE010E9457
:100330005001F1CF8B8DFE01E80FF11DE35AFF4F05
:10034000F0820B8FEA89FB898081806207C0EE8989
:10035000FF896083E889F98980818064808381E0F6
:1003600090E0DF91CF911F910F91FF90EF90089552
:10037000CF93DF93EC01888D8823C9F0EA89FB894C
:10038000808185FD05C0A889B9898C9186FD0FC043
:100390000FB607FCF5CF808185FFF2CFA889B98918
:1003A0008C9185FFEDCFCE010E945001E7CFDF9108
:1003B000CF91089580E090E0892B29F00E944601BA
:1003C00081110C94000008953FB7F8948091790151
:1003D00090917A01A0917B01B0917C0126B5A89BF8
:1003E00005C02F3F19F00196A11DB11D3FBFBA2FC7
:1003F000A92F982F8827820F911DA11DB11DBC0127
:10040000CD0142E0660F771F881F991F4A95D1F7EB
:1004100008958F929F92AF92BF92CF92DF92EF9208
:10042000FF920E94E4014B015C0184E6C82ED12CAE
:10043000E12CF12C0E94E401DC01CB01881999091F
:10044000AA09BB09883E9340A105B10558F021E0F7
:10045000C21AD108E108F10888EE880E83E0981EE0
:10046000A11CB11CC114D104E104F10419F7FF90DF
:10047000EF90DF90CF90BF90AF909F908F900895B6
:10048000009769F0FC0101900020E9F73197AF0176
:10049000481B590BBC018DE791E00C94DA0080E019
:1004A00090E00895CF93DF930E944002EC0186E133
:1004B00091E00E9440028C0F9D1FDF91CF91089523
:1004C0008F929F92AF92BF920F931F93CF93DF9320
:1004D000CDB7DEB7A1970FB6F894DEBF0FBECDBF84
:1004E00019A2423008F44AE08E010F5D1F4F842E9E
:1004F000912CA12CB12CA50194010E946E06E62F2F
:10050000B901CA0101501109EA3014F4E05D01C0DB
:10051000E95CD801EC93232B242B252B61F7C80130
:100520000E944002A1960FB6F894DEBF0FBECDBF69
:10053000DF91CF911F910F91BF90AF909F908F90BF
:1005400008954F925F926F927F928F929F92AF9297
:10055000BF92CF92DF92EF92FF926B017C01B42E9B
:100560009B01AC010E94D608882319F089E191E033
:1005700027C026013701E89477F82FEF3FEF4FE7C8
:100580005FE7C301B2010E94D60881110DC02FEFB1
:100590003FEF4FE75FE7C301B2010E940C07181657
:1005A0001CF48DE191E00CC02FEF3FEF4FE75FE4CB
:1005B000C701B6010E946408181684F481E291E034
:1005C000FF90EF90DF90CF90BF90AF909F908F9073
:1005D0007F906F905F904F900C9440022FEF3FEF11
:1005E0004FE75FECC701B6010E940C0787FDE6CF1D
:1005F00020E030E0A901C701B6010E940C0787FF87
:1006000009C08DE20E94CF004C01F7FAF094F7F890
:10061000F09402C0812C912CA12C60E070E080E06D
:100620009FE3AB1441F020E030E040E251E40E944F
:100630001107A394F6CF9B01AC01C701B6010E943C
:10064000A0062B013C010E9483076B017C010E94E4
:10065000B2079B01AC01C301B2010E949F062B01AE
:100660003C014AE0C701B6010E9460027C01E80C2F
:10067000F91CBB2029F08EE20E94CF00E80EF91E83
:10068000DB2CDD2021F120E030E040E251E4C30129
:10069000B2010E9469082B013C010E9483074B01B3
:1006A000A12CB12C4AE0C501B4010E946002E80E01
:1006B000F91EC501B4010E94B2079B01AC01C30140
:1006C000B2010E949F062B013C01DA94DACFC701E8
:1006D000FF90EF90DF90CF90BF90AF909F908F9062
:1006E0007F906F905F904F900895CF92DF92EF923E
:1006F000FF92CF93DF936C01990FEE08FF08F7FE8E
:1007000012C08DE20E94CF00EC0166277727CB0153
:100710006C197D098E099F094AE00E9460027C01E4
:10072000EC0EFD1E06C04AE0C701B6010E94600241
:100730007C0186E191E00E9440028E0D9F1DDF91B9
:10074000CF91FF90EF90DF90CF9008950E94E10845
:100750001F920F920FB60F9211242F933F934F9336
:100760005F936F937F938F939F93AF93BF93EF9319
:10077000FF938DE791E00E945001FF91EF91BF91AF
:10078000AF919F918F917F916F915F914F913F9129
:100790002F910F900FBE0F901F9018951F920F92E0
:1007A0000FB60F9211242F938F939F93EF93FF9384
:1007B000E0918D01F0918E018081E0919301F091A3
:1007C000940182FD12C09081809196018F5F8F739A
:1007D00020919701821751F0E0919601F0E0E358E3
:1007E000FE4F958F8093960101C08081FF91EF911C
:1007F0009F918F912F910F900FBE0F901F90189582
:100800001F920F920FB60F9211242F933F938F9345
:100810009F93AF93BF938091750190917601A091C2
:100820007701B09178013091740123E0230F2D37C7
:1008300020F40196A11DB11D05C026E8230F0296E4
:10084000A11DB11D209374018093750190937601D1
:10085000A0937701B09378018091790190917A010A
:10086000A0917B01B0917C010196A11DB11D8093E7
:10087000790190937A01A0937B01B0937C01BF91A1
:10088000AF919F918F913F912F910F900FBE0F903D
:100890001F901895CF93DF93CDB7DEB72A970FB689
:1008A000F894DEBF0FBECDBF789484B5826084BD5E
:1008B00084B5816084BD85B5826085BD85B5816064
:1008C00085BD80916E00816080936E0010928100E2
:1008D000809181008260809381008091810081609D
:1008E000809381008091800081608093800080915E
:1008F000B10084608093B1008091B00081608093EA
:10090000B00080917A00846080937A0080917A00B0
:10091000826080937A0080917A00816080937A006F
:1009200080917A00806880937A001092C100E091F3
:100930008D01F0918E0182E08083E0918901F09138
:100940008A0186E08083E0918B01F0918C0192E82E
:10095000908310929501E0919101F0919201808332
:10096000E0918F01F0919001808180618083E0911E
:100970008F01F0919001808188608083E0918F01E8
:10098000F0919001808180688083E0918F01F091E7
:10099000900180818F7D8083EDE9F0E02491E9E88A
:1009A000F0E08491882399F090E0880F991FFC0172
:1009B000E859FF4FA591B491FC01EE58FF4F859186
:1009C00094918FB7F894EC91E22BEC938FBF0E9437
:1009D0002E0623E030E040E050E00E943C062B0170
:1009E0003C012FEF421A520A620A720A620185E242
:1009F00091E00E944002C2010E947503E12CF12C9B
:100A000000E010E0AA24A394B12CEC14FD04ECF750
:100A1000802F0E3010F082EF800F877080648093FB
:100A20007C0080917A00806480937A0080917A00C3
:100A300086FDFCCF609178008091790070E0782B82
:100A4000072E000C880B990B0E94B40720E030E0C1
:100A500040E85AE30E94690820E030E040EA50E4B0
:100A60000E9469082B013C012DEC3CEC4CE950E460
:100A70000E94640887FD08C094E1492E9EEA592E21
:100A80009FE9692E90E4792E83E391E00E94400271
:100A900042E0C301B2010E94A10283E491E00E94FE
:100AA00040022DEC3CEC4CE950E4C301B2010E9441
:100AB000640887FD03C082E591E050C0A301920164
:100AC00060E070E080EA90E40E949F069B01AC0128
:100AD000C301B2010E9411072B013C0123E333E360
:100AE00043E150E40E94640840E087FD31C0C30147
:100AF000B2010E94A10284E591E00E94520288E5C1
:100B000091E00E945202F801EE0FFF1F81E090E099
:100B10008C0F9D1FE80FF91FB182A08282E691E041
:100B20000E944002B7010F2C000C880B990B4AE081
:100B30000E9460028BE691E00E94400281E090E01A
:100B40000E9475039FEFE91AF90A0F5F1F4F08C053
:100B5000C301B2010E94A10284E591E00E94520209
:100B60000E94090252CFEDE7F1E01382128288EE73
:100B700093E0A0E0B0E084839583A683B78388E008
:100B800091E09183808385EC90E09587848784EC65
:100B900090E09787868780EC90E0918B808B81EC4A
:100BA00090E0938B828B82EC90E0958B848B86EC2B
:100BB00090E0978B868B118E128E138E148E089573
:100BC0008F929F92AF92BF92CF92DF92EF92FF925D
:100BD000CF93DF93EC01688179818A819B816115D4
:100BE00071058105910521F464E279ED8BE597E0CB
:100BF0002DE133EF41E050E00E943C0649015A01EB
:100C00009B01AC01A7EAB1E40E945B066B017C0189
:100C1000ACEEB4EFA50194010E946906DC01CB01A2
:100C20008C0D9D1DAE1DBF1DB7FF03C00197A1090F
:100C3000B04888839983AA83BB83BC01CD019F7789
:100C4000DF91CF91FF90EF90DF90CF90BF90AF906A
:100C50009F908F9008950E94E005089580E091E0B4
:100C60000E94E00508956093000170930101809354
:100C70000201909303010895052E97FB1EF4009442
:100C80000E94530657FD07D00E946E0607FC03D052
:100C90004EF40C94530650954095309521953F4F56
:100CA0004F4F5F4F089590958095709561957F4F58
:100CB0008F4F9F4F08950E949006A59F900DB49F5F
:100CC000900DA49F800D911D11240895B7FF0C94E1
:100CD0005B060E945B06821B930B0895A1E21A2E0D
:100CE000AA1BBB1BFD010DC0AA1FBB1FEE1FFF1FD0
:100CF000A217B307E407F50720F0A21BB30BE40B20
:100D0000F50B661F771F881F991F1A9469F7609566
:100D10007095809590959B01AC01BD01CF01089520
:100D2000A29FB001B39FC001A39F700D811D11242C
:100D3000911DB29F700D811D1124911D0895505871
:100D4000BB27AA270E94B7060C942A080E941C08F9
:100D500038F00E94230820F039F49F3F19F426F45C
:100D60000C9419080EF4E095E7FB0C941308E92F96
:100D70000E943B0858F3BA17620773078407950768
:100D800020F079F4A6F50C945D080EF4E0950B2E96
:100D9000BA2FA02D0B01B90190010C01CA01A001CD
:100DA0001124FF27591B99F0593F50F4503E68F128
:100DB0001A16F040A22F232F342F4427585FF3CF69
:100DC000469537952795A795F0405395C9F77EF43A
:100DD0001F16BA0B620B730B840BBAF09150A1F083
:100DE000FF0FBB1F661F771F881FC2F70EC0BA0F09
:100DF000621F731F841F48F4879577956795B79591
:100E0000F7959E3F08F0B0CF9395880F08F099278B
:100E1000EE0F9795879508950E94EF0708F481E0FB
:100E200008950E9425070C942A080E94230858F070
:100E30000E941C0840F029F45F3F29F00C9413082D
:100E400051110C945E080C9419080E943B0868F339
:100E50009923B1F3552391F3951B550BBB27AA2773
:100E600062177307840738F09F5F5F4F220F331FAD
:100E7000441FAA1FA9F335D00E2E3AF0E0E832D075
:100E800091505040E695001CCAF72BD0FE2F29D078
:100E9000660F771F881FBB1F261737074807AB074A
:100EA000B0E809F0BB0B802DBF01FF2793585F4FBF
:100EB0003AF09E3F510578F00C9413080C945E08AC
:100EC0005F3FE4F3983ED4F3869577956795B795A1
:100ED000F7959F5FC9F7880F911D9695879597F9AC
:100EE0000895E1E0660F771F881FBB1F6217730725
:100EF0008407BA0720F0621B730B840BBA0BEE1F3A
:100F000088F7E09508950E94430888F09F5798F06D
:100F1000B92F9927B751B0F0E1F0660F771F881FFE
:100F2000991F1AF0BA95C9F714C0B13091F00E9418
:100F30005D08B1E008950C945D08672F782F88272D
:100F4000B85F39F0B93FCCF3869577956795B3953F
:100F5000D9F73EF490958095709561957F4F8F4FAE
:100F60009F4F0895E89409C097FB3EF490958095B3
:100F7000709561957F4F8F4F9F4F9923A9F0F92F5F
:100F800096E9BB279395F695879577956795B795DD
:100F9000F111F8CFFAF4BB0F11F460FF1BC06F5FC3
:100FA0007F4F8F4F9F4F16C0882311F096E911C0D5
:100FB000772321F09EE8872F762F05C0662371F0F6
:100FC00096E8862F70E060E02AF09A95660F771F0A
:100FD000881FDAF7880F9695879597F90895990FE6
:100FE0000008550FAA0BE0E8FEEF16161706E807F3
:100FF000F907C0F012161306E407F50798F0621B14
:10100000730B840B950B39F40A2661F0232B242BE8
:10101000252B21F408950A2609F4A140A6958FEF07
:10102000811D811D089597F99F6780E870E060E059
:1010300008959FEF80EC089500240A941616170671
:1010400018060906089500240A94121613061406B9
:1010500005060895092E0394000C11F4882352F01C
:10106000BB0F40F4BF2B11F460FF04C06F5F7F4FD4
:101070008F4F9F4F089557FD9058440F551F59F0BB
:101080005F3F71F04795880F97FB991F61F09F3F75
:1010900079F087950895121613061406551FF2CF9E
:1010A0004695F1DF08C0161617061806991FF1CFEE
:1010B00086957105610508940895E894BB27662715
:1010C0007727CB0197F908950E94EF0708F48FEF77
:1010D00008950E947C080C942A080E941C0838F08D
:1010E0000E94230820F0952311F00C9413080C940F
:1010F000190811240C945E080E943B0870F3959F18
:10110000C1F3950F50E0551F629FF001729FBB27FE
:10111000F00DB11D639FAA27F00DB11DAA1F649F9A
:101120006627B00DA11D661F829F2227B00DA11D4D
:10113000621F739FB00DA11D621F839FA00D611DD3
:10114000221F749F3327A00D611D231F849F600DF4
:10115000211D822F762F6A2F11249F5750409AF01D
:10116000F1F088234AF0EE0FFF1FBB1F661F771FA9
:10117000881F91505040A9F79E3F510580F00C9474
:1011800013080C945E085F3FE4F3983ED4F3869511
:1011900077956795B795F795E7959F5FC1F7FE2B14
:1011A000880F911D9695879597F908950E94EF07EE
:1011B000880B990B0895EE0FFF1F0590F491E02D19
:1011C000099481E090E0F8940C94E608F894FFCF3D
:1011D00001000000000000007101DA000901B801FF
:1011E0003A0118012C010D0A006E616E00696E66ED
:1011F000006F76660072616E644E756D6265722076
:101200003D2000E585A5E58A9BE99BBBE59CA7EF12
:10121000BC9A005620E68AB5E68A97E580A4EFBC22
:101220009A00314DCEA92000E38182E3819FE382C1
:101230008A00636F756E74203D2000666C616720C4
:041240003D2000004D
:00000001FF
